:020000040800F2
:10000000180B002049010008573E0008CB330008B8
:10001000553E0008A90C0008B94E00080000000079
:10002000000000000000000000000000754700080C
:10003000EF0C000800000000A1410008774700080D
:100040006301000863010008630100086301000800
:1000500063010008630100086301000863010008F0
:1000600063010008630100086301000863010008E0
:1000700063010008AD0C000863010008B90C00081A
:1000800063010008630100086301000863010008C0
:1000900063010008630100086301000863010008B0
:1000A00063010008630100086301000863010008A0
:1000B0006301000863010008630100086301000890
:1000C0006301000863010008630100086301000880
:1000D00063010008A14E000863010008AD4E00084E
:1000E0006301000863010008630100086301000860
:1000F0006301000863010008630100086301000850
:10010000630100086301000863010008630100083F
:100110006301000863010008D54700086301000877
:10012000630100086301000863010008630100081F
:10013000DFF810D000F0FAFC00480047F56D000829
:10014000AFF30080180B00200648804706480047A0
:10015000FEE7FEE7FEE7FEE7FEE7FEE7FEE7FEE777
:10016000FEE7FEE7D347000831010008202A04DB40
:10017000203A21FA02F00021704721FA02F3D04020
:10018000C2F120029140084319467047D2B201E003
:1001900000F8012B491EFBD270470022F6E710B58C
:1001A00013460A4604461946FFF7F0FF204610BDE5
:1001B00030B505462A460B4612F8010B13F8014BE1
:1001C00008B1A042F8D01CB1002802D06D1CF1E7A4
:1001D000284630BD421C10F8011B0029FBD1801AB3
:1001E000704730B504460020034600E05B1C934294
:1001F00003D2E05CCD5C401BF8D030BDF0B480EAA7
:100200000102D40F4200B2EB410F02D2024608466F
:1002100011464A0042D0C30DDDB2C1F3C752AD1A38
:10022000202D35DAC1F3160141F4000204B1524227
:10023000C5F1200602FA06F12A411044B3EBD05F63
:1002400023D0C4B1012DA0EBC35009DCF0BC4FF0AA
:10025000004202EAC352DBB200F5000000F005BB29
:10026000400000F1807000EBC350A0F1807040EAC4
:10027000D170490009E0490841EAC071A0EBC350C0
:1002800000F50000400800EBC350F0BC00F0E4BAF9
:100290006142012202EB4101001BF6E7F0BC70470E
:1002A00081F00041AAE780F00040A7E780EA010260
:1002B00010B502F00043400022D04A001FD0010ECA
:1002C00001EB1261C0F35600C2F3560240F4000085
:1002D00042F40002A0FB022000047F39140400D085
:1002E000401C50EA124001D44000491EC2B20C0624
:1002F00004EBD010401C4008802A02D003E000200C
:1003000010BD20F00100002900DA0020184310BDC4
:1003100030B480EA010202F0004530F0004221F0E2
:10032000004013D090B1C30DD40DC2F31601C0F339
:100330001600E41A41F4000140F400027D349142B9
:1003400001D3641C00E04900002C02DA30BC00201C
:1003500070474FF400000023914201D3891A0343F0
:1003600040084FEA4101F7D151B1914202D14FF01B
:10037000004105E002D24FF0010101E06FF0010100
:1003800003EBC450284430BC00F066BA420005D0EC
:10039000C0F3C7525242914201DC0020704700EB8B
:1003A000C15070472DE9FE4F804681EA0300C00F1F
:1003B0000C46009021F0004123F00045B8EB02000C
:1003C000A94105D24046214690461C460B460246AE
:1003D00023F00040104347D0270DC7F30A00C3F3B2
:1003E0000A510290401A019040286BDAC3F31300BF
:1003F00040F4801B0098924620B10023D2EB030A00
:1004000063EB0B0B01985946C0F14002504600F0D7
:1004100002FA06460D4650465946019A00F00AFA7D
:1004200010EB08006141002487EA115284EAE77367
:100430001A4340D0009A62B3019A012A4FEA075248
:1004400015DC001B61EB02014FF0004202EA07528B
:10045000CDE90042001C41F5801132462B4600F0E8
:10046000B7FA03B0BDE8F08F40462146F9E7001B1C
:1004700061EB0201001C41F5801300185B4120185C
:10048000A2F5001747EB030140EAD570B6196D419C
:1004900011E06D084FEA360645EAC0754FEA07528B
:1004A000001B61EB0201001C41F5801149084FEA75
:1004B00030000019514132462B4603B0BDE8F04FE1
:1004C00000F077BA0098012240000023D0EB02022E
:1004D00063EBE073009821464FEAE074B8EB00004C
:1004E00061EB0401E9E783F000435BE781F0004141
:1004F00058E72DE9FE4F81EA030404F0004421F09F
:10050000004100944FF0000B23F0004350EA010437
:100510005ED052EA03045BD0C3F30A54C1F30A5518
:100520002C44A4F2F3340194A0FB0254C1F3130150
:1005300041F48011C3F3130343F4801301FB02441D
:1005400000FB034E840A970A44EA815447EA835722
:10055000A4FB076802958D0A05FB07854FEA932CDB
:1005600004FB0C542705029D4FEA065847EA16374C
:10057000B5EB08056EEB070C870E920E47EA811764
:1005800042EA8312A7FB0201B6EB0B0164EB000405
:100590002B0D43EA0C335E1844EB1C50DA465146EF
:1005A000E7FB0201C5F313044FEA0B3343EA14538C
:1005B0004FEA0432019C43EA0603A4F10C040294BE
:1005C000009CCDE900B400F003FA03B0BDE8F08F61
:1005D00000200146F9E72DE9F04D81EA030404F01B
:1005E000004B21F0004514464FF0000A23F0004173
:1005F00050EA050220D054EA01021DD0C5F30A5783
:100600000246C5F31303C1F31300C1F30A5640F4C5
:10061000801543F48013A7EB0608101BD64608F29A
:10062000FD3873EB050002D308F1010801E09218D0
:100630005B41B8F1000F03DA00200146BDE8F08D00
:1006400000204FF48011064684460EE0171B73EB22
:10065000050705D3121B63EB050306434CEA010CA7
:1006600049084FEA300092185B4150EA0107EDD18A
:1006700052EA030012D082EA040083EA050108432B
:1006800005D0101BAB4106D20122002306E0002258
:100690004FF0004302E06FF0010253101AEB060026
:1006A0004CEB085110EB0A0041EB0B01BDE8F04D9B
:1006B00000F07FB9C10F80EAE0700844CA079623B2
:1006C000002100F0D2B896230022114600F0CDB8E8
:1006D00000F0004220F00040C10DC0F3160040F4CD
:1006E00000007F2901DA00207047962903DCC1F160
:1006F0009601C84001E096398840002AF4D0404273
:10070000704720F00040C10DC0F3160040F4000017
:100710007F2901DA00207047962903DCC1F1960198
:10072000C840704796398840704700F0004230F06A
:1007300000400AD0C10D01F56071C0F3160042EA15
:100740000151C2084007114370470020014670471D
:1007500001F0004330B421F0004150EA010206D01C
:100760000A0DA2F56072C1F31301002A02DC30BC4D
:1007700000207047440F44EAC104C100E01830BCB7
:1007800000EBC25000F068B830B50B4601460020BF
:100790002022012409E021FA02F59D4205D303FA43
:1007A00002F5491B04FA02F52844151EA2F10102C4
:1007B000F1DC30BD2DE9F05F0546002092469B46F6
:1007C00088460646814640241BE028464146474667
:1007D0002246FFF7CBFC53465A46C01A914110D32C
:1007E00011461846224600F016F82D1A67EB01084C
:1007F0004F4622460120002100F00DF817EB0009BA
:100800004E41201EA4F10104DFDC484631462A4651
:100810004346BDE8F09F202A04DB203A00FA02F1AB
:10082000002070479140C2F1200320FA03F31943DE
:1008300090407047202A06DBCB17203A41FA02F09D
:1008400043EAE07306E041FA02F3D040C2F120022D
:1008500091400843194670470029A8BF7047401CC3
:10086000490008BF20F00100704710B4B0FA80FCC6
:1008700000FA0CF050EA010404BF10BC704749B103
:10088000CCF1200421FA04F411FA0CF118BF012173
:1008900021430843A3EB0C01CB1D4FEA00614FEA53
:1008A000102042BF002010BC704700EBC350104422
:1008B0000029A4BF10BC7047401C490008BF20F0AD
:1008C000010010BC7047F0B4002802DCF0BC00202E
:1008D0007047C0F3C751C0F3160040F40000CA07C8
:1008E00001D14000491E3F2202EB61050022114662
:1008F0004FF4000626FA01F31344D418844201D8B9
:10090000001B1A464000491C1729F3DD51008142A3
:1009100002D24FF0FF3100E0002102EBC550F0BCE5
:10092000FFF79ABF10B541000CD0C0F3C75196290C
:1009300008DC7E2909DC06DB410204D000F000401F
:1009400040F07E5010BD002010BDC1F19604C4F1EE
:10095000200100FA01F1E040FFF77EFFA04010BD4A
:10096000F0B400F0004221F0004120F00040CE0D34
:10097000C30DC1F3160141F40001C0F316004C424F
:10098000154640F40000761E09E010EB440002D545
:1009900082F0004240428842F7D840005B1EB342DA
:1009A000F9DA18B1F0BC0021FFF75FBF2846F0BCB0
:1009B000704710B5141E73F1000408DA401C41F1B1
:1009C000000192185B411A4301D120F0010010BDD3
:1009D0002DE9F04D92469B4611B1B1FA81F202E049
:1009E000B0FA80F220329046FFF715FF04460F461A
:1009F00040EA0A0041EA0B0153465A46084313D025
:100A0000114653EA010019D0C8F140025046FFF7E1
:100A1000ADFB05460E46504659464246FFF7FBFEE3
:100A2000084305D0012004E020463946BDE8F08D9A
:100A30000020054346EAE0762C4337430A986305D5
:100A4000E40AA0EB08000022FD0A44EA47540A30F9
:100A500002D500200146E9E7010510196941DDE9E9
:100A6000084500196941BDE8F04DA2E770B521F0D5
:100A7000004303430CD0C1F30A550024D5EB040511
:100A800064EB0403D617AD1AB34102DB0020014624
:100A900070BD201841EB025170BDC1F30A52C1F381
:100AA000130140F2FF3341F480119A4202DA002030
:100AB0000146704740F233439A42A2F2334202DCCD
:100AC0005242FFF753BBFFF7A6BE000030B5041E2D
:100AD00071F1000404DB4FF00044404264EB01017B
:100AE000141E73F1000405DB1C464FF00043524214
:100AF00063EB04038B4208BF824230BD30B5041E55
:100B000071F1000404DB4FF00044404264EB01014A
:100B1000141E73F1000405DB1C464FF000435242E3
:100B200063EB0403994208BF904230BD064C074D69
:100B300006E0E06840F0010394E8070098471034AD
:100B4000AC42F6D3FFF7F8FA108E0008308E00089A
:100B50002DE9F04D00231A461B1A8A4103DB0020C1
:100B60000146BDE8F08DC1F30A52C1F3130141F40F
:100B700080154FF0000BD10702D100186D41521EB5
:100B80000027044640F2FF11384601EB620A3E4658
:100B90008046024600204FF48011FFF7E7FAC219A1
:100BA0007141BB1846EB0100B4EB030C75EB000C74
:100BB00004D3E41A65EB000517460E46241908F124
:100BC00001006D4180463428E3DDF91946EB06004B
:100BD000091BA84103D24FF0FF32134601E0002267
:100BE00013461BEB070046EB0A51BDE8F04DFFF73B
:100BF000E0BE30B58C1810F8012B12F00F0301D1B4
:100C000010F8013B120906D110F8012B03E010F88F
:100C1000015B01F8015B5B1EF9D101E001F8013BCA
:100C2000521EFBD1A142E6D3002030BD2DE9F04198
:100C30000E4680461D4618491046FFF737FB4FF019
:100C4000FF31FFF7A3FB1549FFF730FB1449FFF70E
:100C50002DFB1449FFF75CFB044631464046FFF785
:100C6000CDFA07462146FFF71BFB28603146404678
:100C7000FFF719FB06462146FFF7C0FA68602146D8
:100C80003046FFF70DFBA86021463846FFF7B6FA5D
:100C9000E860BDE8F081000048E111420AD7233C3A
:100CA0000000F047A985C141FEE70000014800F0BF
:100CB0003BB9000060030020014800F035B9000096
:100CC000E405002030B590F840500124AC40C56BDD
:100CD0006C60046863604368102B036803D09960FC
:100CE0000068C26030BD9A600068C16030BD704766
:100CF00072B64FF4FA7403A004F036F9204600F0FF
:100D0000ADFAF8E74572726F722121210A000000E6
:100D10002DE9F04104460E46D4E900011D469046F7
:100D2000FFF7BEFAA168FFF7BBFAE168FFF766FAC2
:100D30006FF001073946FFF729FB3060D4E9000165
:100D4000FFF75CFAA168FFF759FAE168FFF756FA76
:100D50003946FFF71BFBC8F80000D4E90010FFF785
:100D60009FFAA168FFF79CFAE168FFF747FA0C4980
:100D7000FFF7CEFA0B4C2860214605F0C1FF0A4967
:100D80002860884203D92146FFF738FA05E0074971
:100D9000884203DD2146FFF783FA2860BDE8F08131
:100DA00048E19142DB0FC940DB0F49C0DB0F4940EE
:100DB00010B590F821100022022905D0042181638A
:100DC00080F82020012010BD01680B6823F00E037D
:100DD0000B6001680B6823F001030B6090F8403052
:100DE000C46B012101FA03F3636080F8211080F8DD
:100DF0002020104610BD00002DE9F05F90F8211072
:100E00000024022903D004218163012485E00168C4
:100E10000A6822F00E020A6001680A6822F00102E4
:100E20000A603F4E3E4FB215DFF8F4C0DFF8F09095
:100E3000DFF8ECA0DFF8E8B0DFF8E4E00168783F25
:100E400013011502ACF1640CA9F15009AAF13C0A96
:100E5000ABF1280BAEF1140E4FF48018B14227D934
:100E6000B9420ED0614512D049451DD0514518D028
:100E7000594518D0714501D1424615E0294EB1427D
:100E800001D1012210E0274E1436B14201D11022C7
:100E90000AE0244E2836B14206D0224A3C32914222
:100EA00001D11A4600E02A461E49091F0A602BE0BC
:100EB000B94213D0614517D0494522D051451DD0C4
:100EC00059451DD0714501D142461AE0B14202D1C7
:100ED0004FF0807215E0134EB14201D1012210E0B3
:100EE000104E1436B14201D110220AE00D4E2836C0
:100EF000B14206D00B4A3C32914201D11A4600E081
:100F00002A46074980394A60012180F821100021D2
:100F100080F82010416B01B188472046BDE8F09F62
:100F200080000240080402402DE9F05FC16B0A68AE
:100F300001680B68046C4FF0040808FA04F8844D4B
:100F4000844E854FDFF814C2DFF81492DFF814A244
:100F5000DFF814B2DFF814E218EA020F65D05FEA96
:100F6000437862D50A68920603D40A6822F0040224
:100F70000A60DFF8F0814FF48062016808F114081C
:100F800013011402414524D9A9420DD0B1420FD01A
:100F9000B9421AD0614515D0494515D0514501D106
:100FA000120312E0594501D104220EE0714501D12E
:100FB00040220AE06D4D1435A94206D06B4A283212
:100FC000914201D11A4600E022466749091F0A6092
:100FD00029E0A94213D0B14215D0B94220D06145D1
:100FE0001BD049451BD0514502D14FF4800217E078
:100FF000414502D14FF0806212E0594501D10422EF
:101000000EE0714501D140220AE0584D1435A94245
:1010100006D0564A2832914201D11A4600E02246B3
:101020004B4908394A60C16A71E04FF0020808FA7A
:1010300004F818EA020F70D05FEA83786DD50A6869
:10104000920606D40A6822F00A020A60012180F89A
:101050002110DFF810814FF40072016808F11408C4
:1010600013011402414524D9A9420DD0B1420FD039
:10107000B9421AD0614515D0494515D0514501D125
:10108000120312E0594501D102220EE0714501D14F
:1010900020220AE0354D1435A94206D0334A2832C1
:1010A000914201D11A4600E022462F49091F0A60E9
:1010B00029E0A94213D0B14215D0B94220D06145F0
:1010C0001BD049451BD0514502D14FF4001217E007
:1010D000414502D14FF0007212E0594501D1022280
:1010E0000EE0714501D120220AE0204D1435A942BD
:1010F00006D01E4A2832914201D11A4600E022460B
:10110000134908394A60002180F82010816A0029BB
:101110001CD0BDE8F05F0847FFE70825A540154251
:1011200014D01A0712D50A6822F00E020A6090F84D
:101130004020C36B012101FA02F25A60816380F8FA
:101140002110002180F82010016BE0E7BDE8F09F3E
:10115000080002401C0002403000024044000240EF
:10116000580002406C000240080402401C04024087
:1011700030B560B11A4B026814219A4209D2194B5A
:101180001344B3FBF1F18900016417490AE001201F
:1011900030BD134B5B421344B3FBF1F18900016492
:1011A0000F490839C163022180F82110136843F602
:1011B000F0718B43F0E901142143D0E902452C433F
:1011C000214304692143446921438469214319432C
:1011D000116000214163012242770177084630BD4A
:1011E00008040240F8FFFDBF0000024070B504464D
:1011F00090F82000002501280CD0012084F8200060
:1012000094F821600020012E06D084F820000225E9
:10121000284670BD022070BD022684F82160A063BC
:101220002068066826F0010606602046FFF74AFDA2
:10123000E06A00282068016802D041F00E0106E053
:1012400021F0040101602068016841F00A01016099
:101250002068016841F001010160D9E770B50446DA
:1012600000F010F90546601C02D0044800780444E0
:1012700000F008F9401BA042FAD370BD48000020DE
:101280002DE9F84FDFF8C8910024A9F1040B23469B
:101290000F2709F1040AABF1040ED1E00125A540A6
:1012A00006EA0502AA4276D1DFF8A8C14E68A6EB8D
:1012B0000C0866452BD00DDC032E34D005DC36B38C
:1012C000012E19D0022E2FD11BE0112E16D0122E76
:1012D0002AD119E0B8F5881F19D006DCB8F5803F8F
:1012E00015D0B8F5801F1FD111E0B8F5001F0ED042
:1012F000B8F5041F18D10AE0CB6815E0CB681B1DB8
:1013000012E0CB6808330FE0CB680C330CE08B683D
:101310002BB1012B4FF0080303D0456104E00423F7
:1013200002E0056100E00023FF2A01D8064601E043
:1013300000F104064FEA840501D9A5F12005D6F88D
:10134000008007FA05FC28EA0C0803FA05F548EACC
:101350000508C6F800804D68ED0070D53E4DAE69B9
:1013600046F00106AE61AD6924F0030605F0010503
:1013700000953A4D06EB050CDCF80850A607360F31
:1013800007FA06F825EA0805DFF8D480404503D1BE
:101390004FF0000825E052E0DFF8C880404502D158
:1013A0004FF001081DE0DFF8C080404502D14FF04A
:1013B000020816E0DFF8B480404502D14FF0030880
:1013C0000FE0DFF8AC80404502D14FF0040808E0A0
:1013D000DFF8A080404502D14FF0050801E04FF052
:1013E000060808FA06F848EA0508CCF808804D68AF
:1013F000D9F80060ED024D4601D5164300E0964352
:101400002E604D68DAF80060AD02554601D51643EE
:1014100000E096432E604D68DBF80060AD035D464A
:1014200001D5164300E096432E604D68DEF800605B
:10143000ED03754601D5164300E096432E60641C0B
:101440000A681646E2407FF429AFBDE8F88F000035
:10145000080401400000111000100240000001408B
:1014600000080140000C0140001001400014014040
:1014700000180140001C01400AB1016170470904D5
:10148000FBE700000148806870470000480000202A
:1014900070B5040025D094F83D00002520B984F8EB
:1014A0003C50204600F07EFA242084F83D0020685D
:1014B000016821F0010101602068016841F40041E8
:1014C00001602068016821F40041016000F0D8FB50
:1014D0004D4A6168914201D84C4900E04C4988422C
:1014E00001D2012070BD4B492368B0FBF1F15E6869
:1014F00026F03F060E435E606368934206D94FF4C0
:10150000967359434FF47A73B1FBF3F12368491C86
:101510001E6A26F03F06314319626168914210D875
:101520004900401EB0FBF1F2521CC2F30B02042A28
:1015300001D2042022E0B0FBF1F0401CC0F30B000C
:101540001CE0A268F2B301EBC10303EB0116431EDA
:10155000B3FBF6F35B1C43F480431B0549D092B305
:1015600001EBC10202EB0111401EB0FBF1F0401C87
:10157000C0F30B0040F4804040F400402168CA6989
:101580004CF6FF739A431043C861D4E90710014336
:101590002068026822F0C00211430160D4E903010F
:1015A00001432068826848F2FF339A431143816007
:1015B000D4E9050108432168CA6822F0FF021043FC
:1015C000C86001E00EE016E02068016841F001010A
:1015D00001602564202084F83D00256384F83E5096
:1015E000002070BD01EB4106431EB3FBF6F35B1C0C
:1015F000B3E70120C2E701EB4101401EB0FBF1F06F
:10160000401CC0F30B00B7E7A086010080841E00D9
:1016100000093D0040420F002DE9FF4F83B0002537
:10162000DDE910799A4693460446DDF84880009536
:10163000FFF728FF064694F83D0020287CD11923A7
:10164000012288492046009601F0D6FF0028F5D1F6
:1016500094F83C0001286FD0012084F83C002068F9
:101660000168C90703D1016841F0010101602068E8
:10167000016821F400610160222084F83D004020CF
:1016800084F83E0025646762A4F82A90608D208566
:101690007548E062CDE9008653465A4620460499D3
:1016A00001F0ACFE00287CD1208DDFF8C09120270E
:1016B00068B1012814D00228206801681ED041F4C6
:1016C000806101602068416980690090BCE0206809
:1016D000416981690091016841F400710160B3E0E2
:1016E0002068016821F48061016072B62068416958
:1016F00081690091016841F400710AE041F40061E0
:10170000016072B62068416981690091016821F425
:101710008061016062B697E0032865D801280CD08B
:10172000022843464FF000024946204600960BD05F
:1017300001F062FFA8BB0CE091E032464146204632
:1017400002F000F868BB72E001F056FF48BB72B6C9
:1017500033E02068016821F48061016072B620687E
:101760000069616A0870606A401C6062208D401EDA
:101770002085608D401E60853D4846F2A8110068B6
:10178000B0FBF1F0C0EBC00000EB80000090401E09
:10179000009007D020684069C04340070DD50098ED
:1017A000F5E727E044F8305F6773A573206940F0E0
:1017B0002000206162B625731CE02068016841F4B6
:1017C0000071016020680069616A0870606A401CED
:1017D0006062218D491E2185618D491E618562B639
:1017E00021680969017026E032464146204601F031
:1017F000A9FF18B1012007B0BDE8F08F206800698B
:10180000616A0870606A401C6062208D401E81B26F
:101810002185608D401E608520684269D243520751
:1018200012D4032903D1016821F48061016020688A
:101830000069616A0870606A401C6062208D401E09
:101840002085608D401E6085208D00287FF464AF68
:1018500084F83D7084F83E5084F83C50CBE7022079
:10186000C9E70000020010000000FFFF04000100B3
:10187000540000202DE9FF4F83B09A46DDE911970F
:1018800093460446DDF84080FFF7FCFD054694F8DA
:101890003D0020287FD11923012240492046009590
:1018A00001F0AAFE002876D194F83C00012872D0FD
:1018B000012084F83C0020680168C90703D1016851
:1018C00041F0010101602068016821F400610160BC
:1018D000212084F83D00402084F83E000026266444
:1018E000C4F82480A4F82A90608D20852C48E062FA
:1018F000CDE9007553465A462046049901F0FCFD97
:1019000070B930E02A463946204601F053FF58B1FD
:10191000206C042804D12068016841F40071016042
:10192000012007B0BDE8F08F606A21680078086187
:10193000606A401C6062218D491E89B22185628DDA
:10194000521E628522685369DB435B070BD469B181
:1019500000781061606A401C6062208D401E208506
:10196000608D401E6085208D0028CBD12A463946E7
:10197000204601F015FE0028CAD154F83D0B01683D
:1019800041F400710160202004F81E09E6776677B3
:101990000020C6E7FFE70220C3E7000002001000B6
:1019A0000000FFFF10B586B0002100910191029167
:1019B00003910068174988422AD1174CE06940F426
:1019C0000010E061E06900F400100490A06940F0AC
:1019D0000800A061A069694600F0080004904FF477
:1019E0004070009012200190032003900B48FFF7F5
:1019F00047FC0B48416841F0E06141F00201416061
:101A0000E06940F40010E061E06900F40010049027
:101A100006B010BD0054004000100240000C014010
:101A200000000140024881680278114481607047DB
:101A300048000020074810B5016841F0100101601E
:101A4000032000F075F80F2000F006F800F024F8ED
:101A5000002010BD0020024070B50D4D04464FF42B
:101A60007A712878B1FBF0F00A490968B1FBF0F00F
:101A700000F0E8FB48B9102C07D200222146501E86
:101A800000F036F800206C6070BD012070BD0000D1
:101A900048000020540000200C4808B5816941F03E
:101AA00001018161816901F001010091C16941F089
:101AB0008051C161C06900F08050009004484168C5
:101AC00021F0E06141F00071416008BD001002406A
:101AD00000000140002809DB00F01F0201219140B5
:101AE0004009800000F1E020C0F8001170470000BC
:101AF000F0B40E4B1B680C46C3F30223C3F1070579
:101B0000042D00D90425191D072901D2002300E066
:101B1000DB1E012606FA05F1491E214099409E4030
:101B2000761E16403143F0BC03F055BA0CED00E0D0
:101B3000064900F0070208684FF6FF03184040EA24
:101B40000220034A10430860704700000CED00E0DB
:101B50000000FA052DE9F0470F46050061D0434E1D
:101B6000306800F00700B84209D2306820F0070062
:101B700038433060306800F00700B84251D128681F
:101B80003B4C810712D5400703D5606840F4E06004
:101B900060602878000703D5606840F4605060609A
:101BA0006068A96820F0F000084360602878C007EA
:101BB00028D06868012810D02168022810D0890731
:101BC00000292EDA616821F0030101436160FFF70B
:101BD00059FC804641F288390DE021688903EFE71E
:101BE0008901EDE7FFF74EFCA0EB0801494502D95A
:101BF0000320BDE8F0876068696800F00C00B0EB76
:101C0000810FEFD1306800F00700B8420BD930687F
:101C100020F0070038433060306800F00700B84219
:101C200001D00120E5E72878400705D56068E9681C
:101C300020F4E060084360602878000706D56068FB
:101C4000296920F4605040EAC100606000F038F873
:101C50006168084AC1F30311515CC8400649086035
:101C600006480068FFF7F8FE0020C2E700200240A7
:101C7000001002404A800008540000204C00002060
:101C80000448054900684968044AC1F30221515CCF
:101C9000C840704754000020001002405A800008DD
:101CA0000448054900684968044AC1F3C221515CEF
:101CB000C840704754000020001002405A800008BD
:101CC0000E4A51680E4801F00C03042B11D0082B6A
:101CD0000FD10C48C1F38343C903C05C0AD55168D6
:101CE000084AC1F34041921E515C054A5043B0FB83
:101CF000F1F070470449484370470000001002406B
:101D000000127A003A80000800093D002DE9F84FE2
:101D1000040070D02078C04DC00749D06868C0F377
:101D20008100012807D06868C0F38100022809D12A
:101D30006868C00306D52868800339D56068002824
:101D4000E7D035E06068B0F5803F0BD010B1B0F55A
:101D5000A02F11D0286820F480302860286820F453
:101D6000802002E0286840F480302860606890B1EC
:101D7000FFF788FB06460AE0286840F480202860C8
:101D8000F0E700BFFFF77EFB801B642873D828684C
:101D90008003F7D50CE0FFF775FB064605E000BFB2
:101DA000FFF770FB801B6428F0D828688003F7D405
:101DB00020789A4E80074FF001094FF0000839D57E
:101DC000686810F00C0F07D06868C0F38100022823
:101DD00009D16868C00306D42868800714D5206933
:101DE000012808D110E02069B0B1C6F80090FFF7D3
:101DF00049FB074605E00AE1FFF744FBC01B022848
:101E0000C4D828688007F7D52868616920F0F800F1
:101E100040EAC10028600DE0C6F80080FFF732FB01
:101E2000074604E0FFF72EFBC01B022823D82868D2
:101E30008007F7D4207800072CD57948A169D9B15B
:101E4000C0F80090FFF71EFB074604E0FFF71AFBFF
:101E5000C01B02280FD8686A8007F7D571484FF475
:101E6000FA510068B0FBF1F0009000BF0098411EED
:101E70000091FAD20EE080E0C0F80080FFF702FB8C
:101E8000074604E0FFF7FEFAC01B022875D8686A0F
:101E90008007F7D42078400760D5E8690027C000A4
:101EA00008D4E86940F08050E861E869012700F053
:101EB000805000905C480168C90513D401688346CE
:101EC00041F480710160FFF7DDFA824606E000BF51
:101ED000FFF7D8FAA0EB0A0064284ED8DBF8000020
:101EE000C005F5D5E06801280AD008B1052813D04F
:101EF000286A20F001002862286A20F0040002E02D
:101F0000286A40F001002862E06841F2883B98B1FD
:101F1000FFF7B8FA82460BE0286A40F00400286216
:101F2000EEE700BFFFF7AEFAA0EB0A0159455AD819
:101F3000286A8007F6D50CE0FFF7A4FA824605E090
:101F4000FFF7A0FAA0EB0A0159454CD8286A800790
:101F5000F6D41FB1E86920F08050E861E06988B3E9
:101F60006968C1F38101022944D00228C6F8608063
:101F700004D0FFF787FA044638E034E0FFF782FA2E
:101F8000074604E0FFF77EFAC01B02282BD828681A
:101F90008001F7D4206AB0F5803F05D16868A16858
:101FA00020F4003008436860D4E9080108436968F8
:101FB00021F4741108436860C6F86090FFF762FA74
:101FC000044606E025E000BFFFF75CFA001B02288C
:101FD00009D828688001F7D51BE000BFFFF752FA47
:101FE000001B022802D90320BDE8F88F2868800171
:101FF000F4D40EE00128F7D06868226A00F480313A
:10200000914204D1616A00F47010884201D001202D
:10201000EAE70020E8E7000000100240000042422A
:10202000800442425400002000700040704770B5A8
:10203000040009D0606A002540B125616561A56290
:1020400094F8510040B10CE0012070BD6068B0F51B
:10205000827FF4D0E561F2E784F85050204600F02A
:102060003FF8022084F851002068016821F0400107
:102070000160A088218900F4827001F404410843C2
:10208000A18901F400610843217C01F002010843A9
:10209000217D01F001010843218B01F40071084307
:1020A000217F01F03801084394F8201001F08001ED
:1020B0000843218D01F40051084321680860A0699C
:1020C000042101EA1040216848602068C16921F4B8
:1020D0000061C1616565012084F85100002070BD78
:1020E00070B586B0002506460095019502950395CA
:1020F00000681B49884230D11A49886940F48050F1
:102100008861886900F480500490886940F0040078
:1021100088618869694600F004000490A02000905E
:1021200002200190032003900F48FFF7A9F8104CFC
:102130000E4820601020C4E901058020C4E9030591
:102140004FF440506561C4E906502046FFF710F88F
:1021500008B1FEF7CDFDB464666206B070BD000044
:1021600000300140001002400008014030000240F1
:102170006003002070B5044690F8510001281CD17E
:10218000C9B1C2B194F85000012816D0012084F8DA
:102190005000032084F85100002565652163A28664
:1021A000E286A56365642564A587E587A068B0F528
:1021B000004F04D00DE0012070BD022070BD2068EA
:1021C000016821F0400101602068016841F480410C
:1021D0000160A16C1748C862A16C17488862A16CA5
:1021E00016480863A06C4563E38E2268216B0C32AD
:1021F000A06CFEF7FBFF30B1606D40F01000606531
:1022000084F85050D7E720680168490603D4016874
:1022100041F04001016084F850502068416841F06D
:10222000200141602068416841F0020141600020C6
:1022300070BD00001B46000825460008F94500084F
:102240007047704710B5401EB0F1807F01D3012068
:1022500010BD4FF0E02460610F21601702F0BBFE5B
:102260000020A06107202061002010BD704770474A
:1022700070B590F83C20012A2CD0012480F83C4015
:10228000022280F83D2003685A689D6822F070069B
:102290000A6832435A60104B02689A420ED00F4BC4
:1022A0009A420BD0B2F1804F08D00D4B9A4205D024
:1022B0000C4B9A4202D00C4B9A4204D1496825F04B
:1022C00080031943916080F83D40002180F83C1064
:1022D000084670BD022070BD002C01400034014052
:1022E0000004004000080040000C004010B504004D
:1022F00003D094F83D0010B107E0012010BD00208C
:1023000084F83C00204600F01FF8022084F83D00CD
:10231000211D206802F064FA012084F8460084F848
:102320003E0084F83F0084F8400084F8410084F8BF
:10233000420084F8430084F8440084F8450084F89F
:102340003D00002010BD000008B5114A0168114889
:10235000914208D1C16941F00801C161C06900F032
:102360000800009008BD0C4A9142FBD1C16941F0C0
:102370001001C161C069002200F01000009001212D
:102380003620FFF7B5FBBDE808403620FFF7A2BBBB
:10239000000C0040001002400010004090F83D107A
:1023A000012901D001207047022180F83D1000680A
:1023B0000E4988420ED00E4988420BD0B0F1804FB2
:1023C00008D00C49884205D00B49884202D00B49FD
:1023D000884204D1816801F00701062903D0016811
:1023E00041F001010160002070470000002C014015
:1023F000003401400004004000080040000C004090
:1024000090F83D10012901D001207047022180F889
:102410003D100168CA6842F00102CA6000680E49B6
:1024200088420ED00D4988420BD0B0F1804F08D0C1
:102430000B49884205D00B49884202D00A4988429C
:1024400004D1816801F00701062903D0016841F039
:102450000101016000207047002C01400034014060
:102460000004004000080040000C004070B5044625
:1024700090F83C000025012817D0012684F83C6024
:10248000022084F83D002068826822F0770222F45E
:102490007F4282600868502838D00DDC20284FD059
:1024A00005DC90B3102811D14AE0022070BD30281D
:1024B00046D040280AD13BE060282FD070280DD0AC
:1024C000B0F5805F03D0B0F5005F12D0012584F82D
:1024D0003D60002084F83C00284670BDCB68D1E9FF
:1024E0000121206802F0D7F92068816841F0770166
:1024F00009E0CB68D1E90121206802F0CCF920681D
:10250000816841F480418160E1E719E0CA68496867
:10251000206802F095FA5021206806E0CA684968F0
:10252000206802F09EFA6021206802F0BEF9CEE732
:10253000CA684968206802F083FA40212068F4E7FD
:10254000226801461046F0E72DE9F0410D460400EF
:1025500003D094F83D0018B108E00120BDE8F081F7
:10256000002084F83C00204600F040F8022084F867
:102570003D002068816844F2070291438160211D7B
:10258000206802F02DF9226890689169166A2B681C
:10259000AF69034340F20330814341EA0721A86851
:1025A000EF6908434FF6FC418843E96840EA072099
:1025B000014328692F6A000140EA0730084369682F
:1025C0006D6926F0220646EA0515294393602268C4
:1025D000906154F8460B0162012004F81F09E07570
:1025E0002076E0762077A0750020B7E770B586B03A
:1025F000002500950195029503950068454B4649D5
:10260000464A984215D1886940F40060886188691B
:1026100000F400600490886940F0040088618869D3
:10262000694600F0040004904FF44070009010469A
:102630006DE03B4E3B4CB0F1804F22D03A4A904285
:102640004ED1C86940F00200C861C86900F00200BC
:102650000490886940F0080088618869694600F044
:1026600008000490302000903046FEF709FE6068B4
:1026700020F4406040F0E06040F40060606006B02C
:1026800070BDC86940F00100C861C86900F0010070
:102690000490886940F004008861886900F00400B3
:1026A0000490886940F0080088618869694600F0F4
:1026B000080004904FF4004000901046FEF7E0FD43
:1026C0000820CDE90005694630460295FEF7D8FDA1
:1026D000606820F4407040F0E06040F48070CDE726
:1026E000124A9042CBD1886940F4005088618869D1
:1026F00000F400500490886940F0100088618869F7
:10270000694600F010000490C02000900848FEF7D1
:10271000B7FDB4E7002C0140001002400008014062
:10272000000C014000000140000400400034014062
:102730000010014070B590F83E60044690F83F509C
:1027400090F8423090F84320022021B104290ED0A5
:10275000012E1BD114E0012E18D1012B16D184F8C3
:102760003E0084F8420001220021206820E0012D73
:102770000CD1012A0AD184F83F0084F8430014E008
:10278000012D03D1012B01D1012A01D0012070BDFF
:1027900084F83E0084F83F0084F8420084F8430047
:1027A00001220021206802F069F80122042120683A
:1027B00002F064F82068016841F001010160002026
:1027C00070BD70472DE9F04104460068C668056990
:1027D0004FF00007A90713D5B10711D5F91E016104
:1027E00001202077206880698007204602D0FFF70B
:1027F000E8FF04E000F0A4F8204600F036F927775F
:10280000680716D5700714D521686FF004000861B9
:10281000022020772068806910F4407F204602D093
:10282000FFF7CFFF04E000F08BF8204600F01DF921
:102830002777280715D5300713D521686FF00800D2
:102840000861042020772068C0698007204602D0F4
:10285000FFF7B7FF04E000F073F8204600F005F939
:102860002777E80616D5F00614D521686FF010001A
:102870000861082020772068C06910F4407F204656
:1028800002D0FFF79EFF04E000F05AF8204600F067
:10289000ECF82777E80708D0F00706D021686FF03A
:1028A00001000861204600F03BF9280608D53006F3
:1028B00006D521686FF0800008612046FFF7D6FC3E
:1028C000680608D5700606D521686FF040000861DB
:1028D000204600F0E9F9A8060AD5B00608D5216817
:1028E0006FF0200008612046BDE8F041FFF7BFBC53
:1028F000BDE8F08100B585B0002100910191029101
:10290000039100680B49884211D10B48816941F05D
:10291000040181618069694600F0040004900F2081
:1029200000900220019003900448FEF7A9FC05B036
:1029300000BD0000000C00400010024000080140F3
:10294000704770B5044690F83C0000260D460128FB
:102950000FD0012084F83C006AB1042A1DD0082A57
:102960002FD00C2A3FD00126002084F83C003046AE
:1029700070BD022070BD206801F0A0FF2068816951
:1029800041F0080181612068816921F004018161C1
:10299000206881692A69114311E0206801F0BEFFB7
:1029A0002068816941F4006181612068816921F4B6
:1029B00080618161206881692A6941EA022181611F
:1029C000D2E7206801F0E0FF2068C16941F008010A
:1029D000C1612068C16921F00401C1612068C16939
:1029E0002A69114311E0206802F002F82068C169E9
:1029F00041F40061C1612068C16921F48061C16155
:102A00002068C1692A6941EA0221C161ACE710B5B9
:102A1000040003D094F83D0010B107E0012010BD80
:102A2000002084F83C00204600F01EF8022084F8C4
:102A30003D00211D206801F0D3FE012084F84600EE
:102A400084F83E0084F83F0084F8400084F8410098
:102A500084F8420084F8430084F8440084F8450078
:102A600084F83D00002010BD7047704710B5044643
:102A7000022249B104290ED0082913D094F841004C
:102A8000012816D0012010BD94F83E000128F9D18C
:102A900084F83E200FE094F83F000128F2D184F83A
:102AA0003F2008E094F840000128EBD184F8402052
:102AB00001E084F841200122206801F0DFFE134983
:102AC0002068134A884201D0904203D1436C43F4FA
:102AD00000434364206888420DD090420BD0B0F18F
:102AE000804F08D00B49884205D00B49884202D05C
:102AF0000A49884204D1816801F00701062903D000
:102B0000016841F001010160002010BD002C01406E
:102B1000003401400004004000080040000C004068
:102B20002DE9FF410068554988427DD1554C5449F3
:102B30002068FDF763FB206053480068416A534DED
:102B400000262960466252480068416A6960466210
:102B500050480068416AA96046624F480068416A6F
:102B6000E960466200204FF4004205F1100700BF03
:102B700055F82010914203DDA1F5803145F8201071
:102B800057F8201055F82030194447F82010401C01
:102B90000428EDDB606B38B15FF0000047F820607F
:102BA000401C0428FADB6663364A1032111F081FE6
:102BB00004F00EFA206B20B1206860602069266363
:102BC0006061D4E90001FDF76BFB3449FDF76EFB52
:102BD0000646D4E90401FDF763FB3146FDF760FBCF
:102BE0002F4E206110F1FF4F314602D3FDF706FB57
:102BF00003E0884202DDFDF753FB2061294988424A
:102C000003DD3146FDF74CFB2061204EA06B3036D2
:102C1000012823D002282ED1CDE900562434A6F174
:102C2000100394E8070000E025E001F01DFAF068C9
:102C3000FDF74EFD0746B068FDF74AFD0546706892
:102C4000FDF746FD04463068FDF742FD04B03B4603
:102C50002A462146BDE8F04105F036B80B4801A9E7
:102C60002030009781E861002369183494E8070058
:102C700001F062F9DBE7BDE8FF81000000100040D1
:102C80000AD7233C00000020A40300207401002088
:102C9000EC030020340400200C0500205C548B3B26
:102CA0000000B44300003443704738B5044690F840
:102CB0004200202801D0022038BD51B14AB1012084
:102CC000206300206063204602F04EF8216B01294A
:102CD00001D0012038BD21680A6849680091216847
:102CE0000C3151E8002F42F0100241E80023002B84
:102CF000F5D138BD18B5034690F84200202801D020
:102D0000022018BD61B15AB1012018630020586338
:102D1000184602F071F80028F3D1196B012901D08F
:102D2000012018BD19680A684968009119680C31BA
:102D300051E8002F42F0100241E80024002CF5D1A8
:102D400018BD00002DE9F0410068584988426ED155
:102D5000574A58A15A4804F05FFF554C00250126F8
:102D6000203CE0B1574F206A394610F1FF4F02D3A3
:102D7000FDF744FA03E0884202DDFDF791FA206294
:102D80005149884203DD3946FDF78AFA2062A56180
:102D9000266366630920E561C4E90E6065E0444A84
:102DA0004AA10832464804F037FF48B3404A49A1D7
:102DB0000C32434804F030FF48A14148FDF7F8F9D0
:102DC00008B1082000E00720394AE063121D45A140
:102DD0003B4804F021FF022608B9E6636562434DD3
:102DE000606A2946FDF762FA60622946A06AFDF72B
:102DF0005DFAA0623E49E06AFDF758FAE06233E00E
:102E00003CA12F48FDF7D4F978B387793B4A3C4B76
:102E100003200421313F062F24D2DFE807F0030905
:102E20000F13181EC4E906520520256204E02DE0A8
:102E3000C4E9065306202562E06313E0C4E90635C1
:102E40002562F9E7C4E906252562E1630AE02D4918
:102E5000A561E063C4E9075104E02B48A561E16383
:102E6000C4E9075026636663A66380211448FDF712
:102E700094F9802212492548FFF717FF244800687B
:102E8000016821F004010160BDE8F0812149884218
:102E9000FAD10B4880218030FDF77FF9BDE8F04181
:102EA0000749802280311C48FFF724BF00380140C9
:102EB0002000002077616B655F616E676C653D0087
:102EC000B40100200000B443000034437370656512
:102ED000643D0000726F746174653D0074726970C6
:102EE0000000000063726F73733D00000000C84271
:102EF0000000C8436F726465723D0000000020420C
:102F0000000020C20000B4420000B4C254050020FA
:102F1000E4050020004800409C05002070470000A8
:102F2000F8B5016804460868CA684B6910F00F0FCD
:102F30004FF0000559D003F0010602F490773743B3
:102F400065D0C10705D0D10503D5616C41F0010101
:102F50006164410705D5D90703D0616C41F00201D6
:102F60006164810705D5D90703D0616C41F0040184
:102F70006164010707D502F02001314303D0616C81
:102F800041F008016164616C00293AD0800604D5E3
:102F9000900602D5204601F02AFE20684069616C47
:102FA000C0F38010090700D460B3204601F0EAFDA9
:102FB00020684069400621D52068143050E8001F81
:102FC00021F0400140E80012002AF5D1E06BA8B1E1
:102FD0006D494163E06BFDF70FFF002811D0E06BF6
:102FE000416B01B0BDE8F040084783060FD593065A
:102FF0000DD52046BDE8F84001F0F9BD2046FFF7A9
:103000008DFFF8BD2046FFF789FF6564F8BD266B8C
:103010002023012E7CD1C6067AD5D60678D508683D
:103020004868009048694FF00206400640D5E16BC1
:10303000086840680004000CE8D0A28D8242E5D9FF
:10304000E085886920282DD020680C3050E8001FCA
:1030500021F4807140E80012002AF5D12068143074
:1030600050E8001F21F0010140E80012002AF5D1CC
:103070002068143050E8001F21F0400140E80012A1
:10308000002AF5D184F84230256320680C3050E8DE
:10309000001F21F0100140E80012002AF5D1E06B7A
:1030A000FDF786FE6663A08DE18D401A81B22AE0AD
:1030B000A08DE18D401A81B2E08D0028A6D00029B4
:1030C000A4D022680C3252E8000F20F4907042E83D
:1030D0000007002FF5D12068143050E8002F22F0AF
:1030E000010240E80027002FF5D184F84230256323
:1030F00020680C3050E8002F22F0100240E8002336
:10310000002BF5D166632046FFF71CFEF8BDFFE7F4
:1031100005062BD5150629D594F841002128F5D1AF
:10312000A068B0F5805F01D12069B0B1206A411C70
:103130002162216800784860E08C401E0004000C89
:10314000E084E3D12068C16821F08001C16020687B
:10315000C16841F04001C160D8E7206A0088C0F32F
:1031600008004860206A801C2062E5E74006CDD553
:103170005006CBD5CA68204622F04002CA6084F8C7
:10318000413000F021F9C1E7874A000870B504001A
:1031900004D094F84100002510B106E0012070BD74
:1031A00084F84050204600F023F8242084F84100A1
:1031B0002068C16821F40051C160204601F078FD0B
:1031C0002068016921F4904101612068416921F082
:1031D0002A0141612068C16841F40051C160656401
:1031E000202084F8410084F842006563002070BD0F
:1031F0002DE9F04186B000240094019402940394D8
:103200000646404F03684048022103223F4DBB421F
:1032100041D1836943F480438361836903F480432C
:103220000493836943F0080383618069DFF8E080D9
:1032300000F0080004904020CDE9000103926946A7
:103240004046FEF71DF88027CDE9007469464046E8
:103250000294FEF715F8686840F0E06040F0040062
:1032600068602D4D2B48C5E90004C5E902472C6173
:10327000B8016C61C5E906402846FDF779FF08B141
:10328000FDF736FDF5630022114625206E62FEF73C
:103290002FFC252031E0214EB34230D1C36943F4E5
:1032A0008023C361C36903F480230493836943F0DB
:1032B000100383618069039200F0100004903015C0
:1032C000CDE90001164E69463046FDF7D9FFF014EE
:1032D000CDE90004694630460294FDF7D1FF6868E5
:1032E00020F0300040F0E06040F010006860002204
:1032F00001212720FEF7FCFB2720FEF7EBFB06B0A1
:10330000BDE8F0810038014000100240000001409B
:10331000000C014058000240E40500200048004035
:1033200000100140704770472DE9F843044690F8BB
:103330004100984616460D46202802D00220BDE8DE
:10334000F88385B17EB100206064212084F84100BB
:10335000FEF798F8A6848146E684A0682027B0F599
:10336000805F02D003E00120E9E7206910B12E461A
:1033700000250EE000260CE08021204601F057FDDC
:10338000A8B9C6B116F8010B21684860E08C401E50
:10339000E084E08C4B464FF00002CDF8008000281E
:1033A000EAD14FF04001204601F041FD40B184F8E0
:1033B00041700320C3E735F8020BC0F30800E3E7D0
:1033C00084F841700020BAE77047FEE701684A6957
:1033D000D24352050FD46FF480624A61002140F855
:1033E000301F202242738173026942F0040202619D
:1033F0000173012070470020704700002DE9F84F4D
:103400000446006889460B9D01689846174641F4BA
:10341000806101602068016841F48071016000955D
:103420004FF0011B0022594620460A9B00F0E4F8A9
:103430004FF4007A40B120680068C00501D5C4F897
:1034400040A00320BDE8F88F216809F0FE00086164
:103450002B46284920460A9A00F016F9F0BB20684E
:103460004169806900902A4620460A9900F0A2F935
:1034700040B1206C04283AD12068016841F4007101
:10348000016034E0FEB2B8F1010F09D02168380ABA
:1034900008612A4620460A9900F08CF90028E8D1F4
:1034A000206806612A4620460A9900F083F9002820
:1034B000DFD12068016841F480710160009500222D
:1034C000594620460A9B00F097F80028B3D121689E
:1034D00009F0FF0040F00100086100E007E02B4622
:1034E000044920460A9A00F0CFF80028AAD001200B
:1034F000A8E70000020001002DE9F8430446006837
:103500000D46DDE9089701689846164641F480713A
:1035100001604B4600224FF001112046009700F059
:103520006BF848B120680068C00502D54FF4007000
:1035300020640320BDE8F883216805F0FE000861DF
:103540003B464A461549204600F09EF888B9206857
:103550004169806900903A464946204600F02AF9C0
:1035600048B1206C042804D12068016841F400713E
:1035700001600120DEE7F5B2B8F1010F09D0216842
:10358000300A08613A464946204600F013F90028FF
:10359000E7D1206805610020CCE7000002000100AF
:1035A00070B516460D4604461EE02046FFF70EFF96
:1035B00008B1012070BD681C16D0FDF763FF801BA9
:1035C000A84200D885B920684069C04340070BD5A0
:1035D000002044F8300F20216173A073216941F06D
:1035E000200121612073E4E720684069C04340075F
:1035F000DBD4002070BD00002DE9F0479846174647
:103600000D460446C1F30746DDF820902AE000BFCE
:10361000B8F1FF3F26D0FDF735FFA0EB090141458A
:1036200002D8B8F1000F1DD12068012E16D0806994
:1036300025EA00000004000C12D00020B84211D18D
:10364000002044F8300F20216173A073216941F0FC
:103650002001216120730120BDE8F0874069E7E780
:103660000120EBE72068012E0AD0806925EA0000DE
:103670000004000C06D00020B842C9D00020EBE7BF
:103680004069F3E70120F7E72DE9F0479846164631
:103690000D4604464FF000094FF0200AC1F30747DA
:1036A00023E020684069C043400515D420680168C4
:1036B00041F40071016021686FF480604861C4F8D2
:1036C000309084F83DA084F83E90216C41F00401D4
:1036D000216484F83C9021E0701C06D0FDF7D2FEF6
:1036E000A0EB0800B04203D816B1012F1FD021E093
:1036F0002068012F15D0806925EA00000004000C25
:1037000018D000BF44F8309F84F80DA084F80E90C4
:10371000216941F02001216184F80C900120BDE86D
:10372000F087406925EA00000004000CEAD1206817
:10373000406901E02068806925EA00000004000C6F
:10374000AFD1ECE72DE9F041002590460E46044646
:10375000202728E04069C043C0060CD454F8301B31
:103760006FF01000486144F810596777A577206A18
:103770002062257714E0FDF785FEA0EB0800B0423B
:1037800000D886B920684069C04340060BD544F88C
:10379000305F6773A573206940F0200020612573B6
:1037A0000120BDE8F08120684169C9434906D1D4B0
:1037B0000020F6E770B516460D4604461EE020468A
:1037C000FFF704FE08B1012070BD681C16D0FDF79C
:1037D00059FE801BA84200D885B920684069C043C3
:1037E00000060BD5002044F8300F20216173A07330
:1037F000216941F0200121612073E4E720684069DC
:10380000C0430006DBD4002070BD10B580216B20C2
:1038100000F092F86420FDF721FD00216B2000F0FC
:103820008BF8032000F053F8002000F04BF8322012
:1038300000F06AF80021382000F07EF800216A20AC
:1038400000F07AF80021232000F076F8802137205C
:1038500000F072F8752000F011F8682801D00120FE
:1038600010BD01216B2000F067F800216C2000F0F2
:1038700063F8322000F048F8002010BD1FB54FF665
:10388000FF73012203A98DE80E0013460246D121E1
:103890000348FDF7C1FE9DF80C0004B010BD000008
:1038A000B40200200EB54FF6FF70CDE90032029051
:1038B0000A460123D1210248FDF7AEFE0EBD0000ED
:1038C000B4020020C006010E1C2000F035B8C0066E
:1038D000010E1B2000F030B8BC2801D3012110E0FC
:1038E000622801D302210CE02A2801D3032108E039
:1038F000142801D3042104E00A2801D3052100E0A3
:1039000006211A2000F018B810B504464FF47A705A
:10391000844201D9044602E0042C00D20424B0FB06
:10392000F4F0401EC1B2192000F006F86008BDE8AE
:103930001040FFF7D1BF000003B583B04FF6FF730F
:10394000012204A98DE80E0013460246D021024848
:10395000FDF790FF05B000BDB40200200EB54FF694
:10396000FF70CDE9003202900A460123D0210248BF
:10397000FDF780FF0EBD0000B40200200D4808B521
:10398000416941F0010141614069002200F00100FC
:10399000009011460D20FEF7ABF80D20FEF79AF8C7
:1039A000002211460F20FEF7A3F8BDE808400F20C3
:1039B000FEF790B8001002402DE9F04F85B00024CA
:1039C0002E480094019402940394816941F02001EF
:1039D0008161816901F020010491816941F0040154
:1039E0008161816901F004010491816941F008015C
:1039F0008161816901F008010491816941F0100140
:103A000081618069DFF8789000F010004FF4704514
:103A10000490002229464846FDF72EFDDFF864A0F9
:103A20004FF44077002239465046FDF725FDDFF878
:103A300058B04FF4C058002241465846FDF71CFDCF
:103A40000095022601250396CDE9015469464846B2
:103A5000FDF716FC00970396CDE9015469465046E0
:103A6000FDF70EFCCDF800800396CDE901546946C0
:103A70005846FDF705FC05B0BDE8F08F0010024088
:103A8000000C014000100140000801400D4810B535
:103A90000B4901600C49416000214FF48042816074
:103AA000C0E9031241618161C1610162FDF7F0FC6F
:103AB000002803D0BDE81040FDF71AB910BD000082
:103AC00000540040B4020020801A0600104810B5CF
:103AD0000E4901604FF48271416000218160012232
:103AE000C160C0E90412520282611822C0E90721B4
:103AF000416281620A21C162FEF799FA002803D06F
:103B0000BDE81040FDF7F4B810BD000000300140E2
:103B10000803002010B58CB024216846FCF73DFB5B
:103B200000241848099416490A94C0E900144FF675
:103B3000FF71C0E9024180210461C0E90541032011
:103B4000CDE9000401200A210222CDE90204CDE9D9
:103B500004120690CDE9074169460A48FEF7F4FCD5
:103B600008B1FDF7C5F8099409A906480A94FEF7BB
:103B70007FFB002801D0FDF7BBF80CB010BD0000A2
:103B8000002C0140A403002010B58CB0242168460D
:103B9000FCF703FB0024164809944FF080410A9477
:103BA000C0E900144FF6FF71C0E9024180210461B1
:103BB00081610320CDE900040120CDE902040A213E
:103BC0000491CDE90540CDE9074169460848FEF773
:103BD000BBFC08B1FDF78CF8099409A904480A94C4
:103BE000FEF746FB002801D0FDF782F80CB010BDAF
:103BF000EC03002010B58CB024216846FCF7CDFA08
:103C000000241748099415490A94C0E900144FF696
:103C1000FF71C0E902418021046181610320CDE987
:103C2000000401200A210222CDE90204CDE9041298
:103C30000690CDE9074169460948FEF785FC08B1C1
:103C4000FDF756F8099409A905480A94FEF710FBF8
:103C5000002801D0FDF74CF80CB010BD0004004066
:103C60003404002010B58EB0002407940894099401
:103C70000A940B941C2168460C94FCF78EFA2A488F
:103C80002849C0E9001445F6BF51C0E9024180212E
:103C900004618161FEF72AFB08B1FDF729F84FF4B2
:103CA0008050079007A92048FEF7E0FB08B1FDF718
:103CB0001FF81D48FEF7ABFE08B1FDF719F80B948D
:103CC0000BA919480C94FEF7D3FA08B1FDF710F8C8
:103CD0006020CDE900040294002269461248049451
:103CE000FEF72FFE08B1FDF703F8042269460E48DF
:103CF000FEF727FE08B1FCF7FBFF082269460A48D9
:103D0000FEF71FFE08B1FCF7F3FF0C2269460648D8
:103D1000FEF717FE08B1FCF7EBFF0348FEF7EAFDDC
:103D20000EB010BD000C00407C0400201CB5002427
:103D30000F4800940D490194016040F2CF21C0E981
:103D4000011440F2E731C16080218161FEF7CEFAB3
:103D500008B1FCF7CDFF0094694605480194FEF7D1
:103D600087FA002801D0FCF7C3FF1CBD00100040FB
:103D7000C404002010B58CB024216846FCF70DFA6D
:103D800000241748099415490A94C0E900144FF615
:103D9000FF71C0E9024180210461C0E905410320AF
:103DA000CDE900040120CDE902040A210491CDE906
:103DB0000540CDE9074169460948FEF7C5FB08B152
:103DC000FCF796FF099409A905480A94FEF750FAF2
:103DD000002801D0FCF78CFF0CB010BD003401406E
:103DE0000C0500200C4810B50A4901604FF4E13180
:103DF0004160002181600C22C160C0E90412816130
:103E0000C161FFF7C3F9002803D0BDE81040FCF7FB
:103E10006FBF10BD00380140540500200C4810B59C
:103E20000A4901604FF4E1314160002181600C22B8
:103E3000C160C0E904128161C161FFF7A7F90028E0
:103E400003D0BDE81040FCF753BF10BD0048004050
:103E50009C050020FEE7FEE72DE9F0411446FCF743
:103E60001FFAE0602569064601212846FCF78EFA14
:103E70003146FCF718FA6169FCF7C0F9A168FCF754
:103E800015FA074631466068FCF710FA8046294665
:103E90003046FCF705FA2168FCF708FA4146FCF7C2
:103EA000ADF93946FCF7AAF9E169FCF7A7F9E06139
:103EB000C4E90465BDE8F0812DE9F0411446FCF742
:103EC000EFF91949E060884204DC1849884201D8BA
:103ED0000020E06005462946A069FCF78FF9A06143
:103EE000074628462169FCF7DBF9A168FCF7DEF9F3
:103EF000064639466068FCF7D9F907462946206826
:103F0000FCF7D4F93946FCF779F93146FCF776F934
:103F100007492561E061884202D80649884200DDF0
:103F2000E161E069BDE8F0819A99993E9A9999BE5C
:103F30000000FEC40000FE442DE9FF4F87B00020C2
:103F4000DDE91475DDE9168600900190DFF800A127
:103F5000DFF800B1029003900490059004460DF143
:103F60000C09069057F82400FCF7A4FB5146FCF717
:103F70009DF95946FCF7CCF949F82400641C042C3F
:103F8000F0DB02AB01AA694603A8FCF7C1FE009969
:103F90000798FCF785F9074601990898FCF780F91E
:103FA00004460146384603F026FE8146394620463F
:103FB00002F0BEF88246284A00214846FFF77CFFFF
:103FC0008146254ADDE90901203200F099F82349AC
:103FD000FCF79EF90746504603F02EFF4946FCF7D2
:103FE00065F90446504602F0F5F94946FCF75EF9DA
:103FF0002B463A462146FCF719FEDFF85C90DFF8C5
:1040000060B00024A9F1800A58F82400FCF752FBA4
:1040100001460AEB4412174655F82400FFF71CFF2F
:1040200046F82400D9F80C205A450BDA0D48824294
:1040300008D2094A2032D2685A4503DA824201D2B4
:104040000020F861641C042CDEDB0BB0BDE8F08FAF
:10405000A985C1410000F04710010020E12E654212
:10406000CDCCCC3DCDCCCCBD2DE9F05F0C46DDE90F
:104070000A7683461D461C491046FCF749F9DFF8CD
:104080006C80824641462046FCF710F91849FCF73F
:104090000DF9DFF860904946FCF73AF904464146CD
:1040A0005846FCF703F91449FCF700F94946FCF7B8
:1040B0002FF92B4652462146FCF7B8FDDFF83C802D
:1040C000002400BF57F82400FCF7F4FA014608EB7F
:1040D000441255F82400FFF7BFFE46F82400641C84
:1040E000042CEFDBBDE8F09FE12E65420AD7233CAC
:1040F0000000F047A985C1410000F0C790000020F2
:104100002DE9F0411446FCF7CBF8204A2049E06045
:10411000904202DDFCF7C4F804E01E4A904202D946
:10412000FCF76CF8E060B0F17C5F04DCB0F13F4F6D
:1041300001D80020E06005462946A069FCF75EF83A
:10414000A061074628462169FCF7AAF8A168FCF798
:10415000ADF8064639466068FCF7A8F807462946D8
:104160002068FCF7A3F83946FCF748F83146FCF71D
:1041700045F809492561E061884202D8074988422B
:1041800000DDE161E069BDE8F0810000000034433A
:104190000000B443000034C30000B4C20000B442C5
:1041A0007047000070B586B00D46064614461821CB
:1041B0006846FBF7F2FF00234FEA0D0003EB4301D3
:1041C0005B1C46540144082B4D708C70F6DB00F0EC
:1041D00075FE06B070BD00002DE9F04107461D498F
:1041E000FCF764F802F0F6F81B4E3146FCF75EF877
:1041F0003146FCF703F8FCF784FAC5B21749384694
:10420000FCF754F81649FBF7F9FF02F0E3F83146E2
:10421000FCF74CF83146FBF7F1FFFCF772FAC4B239
:104220004FF0FF313846FCF7B1F80E49FBF7E6FFD7
:1042300002F0D0F83146FCF739F83146FBF7DEFFE3
:10424000FCF75FFAC2B221462846BDE8F041FFF70D
:10425000A9BF0000CDCC8C3F00007042333333BF88
:1042600066660640666686402DE9FE4F05460024D8
:10427000DFF8B8B02E49FCF719F80290DFF8B4A0C7
:104280002D4E2E492846FCF711F801902C4928465E
:10429000FCF70CF8DFF8AC9000902046FCF70AFA27
:1042A0005946FCF703F8804641460298FBF7A6FF03
:1042B00002F090F855465146FBF7F8FF2946FBF708
:1042C0009DFFFCF71EFA04EB44054146705501982A
:1042D000FBF794FF1C49FBF791FF02F07BF81B4FA3
:1042E0003946FBF7E3FF3946FBF788FFFCF709FA8D
:1042F0003544414668700098FBF7D2FF1449FBF73C
:104300007DFF02F067F84F464946FBF7CFFF39467D
:10431000FBF774FFFCF7F5F9641CA870082CBCDBF4
:10432000BDE8FE4F044800F0C9BD0000CDCC4C3FB5
:1043300000002040000096422806002066664640A5
:10434000CDCC2CC000000C42666606400000344212
:10435000666686402DE9F0410D4607461446114930
:10436000184602F0CDFC1049FBF7A0FFFCF7C9F995
:10437000C2B200200D490346904200EB400604D132
:104380008F550E447570B47003E08B550E447370F6
:10439000B370401C0828EFDBBDE8F041034800F093
:1043A0008DBD00009A99193F0000A0412806002009
:1043B0002DE9F0410D46074614461249184602F011
:1043C0009FFC1149FBF772FFFCF79BF9C1B2C1F1E9
:1043D000080200200D490346824200EB400604D14A
:1043E0008F550E447570B47003E08B550E44737096
:1043F000B370401C0828EFDBBDE8F041034800F033
:104400005DBD00009A99193F0000A04128060020D8
:104410002DE9F0410D46064614461649184602F0AD
:104420006FFC1549FBF742FFFCF76BF9C2B20020A5
:10443000111DC2F10403114A8446884201D083420F
:1044400006D100EB4007D65517447D70BC7008E0DC
:1044500000EB400702F807C0174487F801C087F84F
:1044600002C0401C0828E8DBBDE8F041034800F02A
:1044700025BD00009A99193F000040412806002000
:104480002DE9F0410D46064614461649184602F03D
:1044900037FC1549FBF70AFFFCF733F9C2B21349A1
:1044A0000020904201D1042805DBC2F108038342B9
:1044B00008D1032806DD00EB4003CE540B445D70A9
:1044C0009C7006E000EB40070023CB550F447B7047
:1044D000BB70401C0828E4DBBDE8F041034800F055
:1044E000EDBC00009A99193F0000404128060020C9
:1044F0002DE9F0470D4606461F4614462049089808
:1045000002F0FEFB0021B7F17E5F01DD012104E036
:1045100017F1814F01D94FF0FF31C1F1020CC1F108
:104520000508184B00214FF020094FF00C0A00BF7E
:1045300001EB4107491C03F807901F44082987F83D
:10454000019087F802A0F3DB0F49884207DB0F498F
:104550000F4A0144914202D30E4988420BDD0CEB15
:104560004C001E5418444570847008EB48001E54DB
:10457000184445708470BDE8F047024800F09EBCC6
:1045800000004040280600208FC2F53D703D8AC1E2
:104590005C8F42008FC2F53E10B5144902F0B0FBAB
:1045A00000221349134600BF02EB4204521C0B5574
:1045B0000C44082A6370A370F6DB0E4A90420FDAAF
:1045C00000206A225FF0800300EB40040A55C0F12E
:1045D000070404EB44040C44401CA3700428F3DBE0
:1045E000BDE81040024800F069BC0000CDCCCC3ED4
:1045F00028060020CDCC4C3E10B5406A01684A68C0
:1046000022F003024A60416D41F010014165012131
:1046100080F85110FDF70AFD10BD10B5406AFDF796
:1046200010FE10BD38B50546446AFCF72BFF024664
:1046300028680068800623D42068416821F02001A2
:1046400041602068416821F00201416064212046F8
:1046500000F01AF818B1606D40F020006065A068A5
:10466000002118B92068C26880680090E1860120A6
:1046700084F85100606D18B12046FDF7D7FC38BDB5
:104680002046FDF7DDFD38BDF8B515460E460B4654
:10469000009204460122022100F010F840B933468E
:1046A000002280212046009500F008F8002804D060
:1046B000606D40F0200060650320F8BD2DE9F843EF
:1046C0001E46914688460446089DFCF7DBFE401BCB
:1046D000351AFCF7D7FE074625480068C0F3CB30F3
:1046E000684338E0701C37D0FCF7CCFEC01BA842F2
:1046F00003D215B1009860B32CE02068416821F026
:10470000E00141606068B0F5827F0BD1A068B0F530
:10471000004F02D0B0F5806F04D12068016821F00D
:1047200040010160A06AB0F5005F09D1206801680E
:1047300021F4005101602068016841F400510160DA
:10474000012084F85100002084F850000320BDE8C7
:10475000F8830025401E00902068816838EA010037
:1047600004D000214945BDD10020F0E70121F9E73F
:10477000540000207047FDF755B930B58FB028219F
:104780006846FBF70AFD14210AA8FBF706FD012184
:104790000804CDE900100024029402250491CDE91B
:1047A00007504FF4E01009906846FDF7AFFA60B982
:1047B0000F20CDE90A056802CDE90C4002210AA8C4
:1047C0000E94FDF7C7F9002801D0FCF791FA0FB05D
:1047D00030BD70470148FDF7F5BF0000C40400205C
:1047E000F0B50268204C214D214E224F224B4FF054
:1047F000804CA04209D0984207D0604505D0A8421D
:1048000003D0B04201D0B84204D122F0700E4A6801
:1048100042EA0E02A04209D0984207D0604505D076
:10482000A84203D0B04201D0B84203D122F440756F
:10483000CA682A434D6922F080022A4302608A68CE
:10484000C2620A688262A04201D0984201D109691D
:104850000163012141610169C90703D0016921F0A8
:1048600001010161F0BD0000002C01400004004086
:1048700000080040000C00400034014010B501F079
:104880001F030121046A99408C430462016A9A4023
:104890001143016210BD10B5846842EA032224F47A
:1048A0007F440A432243826010BD826822F0700276
:1048B0000A4342F00701816070470000F0B5036AC7
:1048C000026A22F00102026242688469124E24F0F8
:1048D00073050C682C4323F002058B682B430D4DA8
:1048E000A84201D0B04205D123F00807CB683B4372
:1048F00023F00403A84201D0B04205D14D6922F44F
:10490000407215438A692A43426084614968416361
:104910000362F0BD002C014000340140F0B5026A92
:10492000036A23F010030362436884690D6824F46A
:10493000E64444EA05248D6822F0200242EA05128A
:104940000F4D104EA84201D0B04206D1CF6822F0E0
:10495000800242EA071222F04002A84201D0B0428F
:1049600007D14D6923F4406343EA85038D6943EA27
:10497000850343608461496881630262F0BD000081
:10498000002C014000340140F0B5026A036A23F4B0
:10499000807303624368C46922F4007224F07305D3
:1049A0000C68124E2C438D6842EA05220E4DA84237
:1049B00001D0B04206D1CF6822F4006242EA072259
:1049C00022F48062A84201D0B04207D14D6923F49D
:1049D000405343EA05138D6943EA05134360C461FC
:1049E0004968C1630262F0BD002C014000340140FF
:1049F00030B5046A026A22F4805202624268C369D6
:104A00000D6823F4E64343EA05238D6824F400543B
:104A100044EA0534084DA84202D0084DA84204D10A
:104A20004D6922F4804242EA85124260C3614968BE
:104A30000164046230BD0000002C014000340140DC
:104A400010B5036A046A24F001040462846924F046
:104A5000F00444EA021423F00A020A438461026269
:104A600010BD10B5036A046A24F01004046284695E
:104A700023F0A00324F4704444EA023243EA011113
:104A80008261016210BD10B5406A0021C185C184F8
:104A9000FEF744FA10BD70B5446A2068406994F886
:104AA0004110C0F3C0100025212904D118B1E584BC
:104AB000204600F08EF82068406994F84210C0F358
:104AC0008010222904D118B1E585204600F05AF85B
:104AD000606C40F0100060642046FEF71FFA70BD65
:104AE00010B50146406A096809684FF0000289065E
:104AF0002ED4C28501680C3151E8003F23F4807345
:104B000041E80034002CF5D10168143151E8003F30
:104B100023F0010341E80034002CF5D10168143181
:104B200051E8003F23F0400341E80034002CF5D168
:104B3000202180F84210016B012909D101680C3154
:104B400051E8003F23F0100341E80034002CF5D178
:104B50004263016B012902D0FEF7E4FB10BD818D99
:104B6000FEF7F0F810BD10B5406A01214163016BFA
:104B7000012902D0FEF7D7FB10BD818D4908FEF751
:104B8000E1F810BD01680C3151E8002F22F4907259
:104B900041E80023002BF5D10168143151E8002FC2
:104BA00022F0010241E80023002BF5D1016B01291D
:104BB00009D101680C3151E8002F22F0100241E8C0
:104BC0000023002BF5D1202180F842100021016341
:104BD000704701680C3151E8002F22F0C00241E813
:104BE0000023002BF5D1202180F84110704708B533
:104BF00090F84210222901D0022008BD82684FF4AB
:104C000080539A4201D1016921B1816A9A421BD035
:104C10004AB10AE00268816A5268C2F308020A8057
:104C2000816A891C08E0026972B10268526802F068
:104C30007F020A70816A491C8162C18D491E090484
:104C4000090CC18503D01BE002685268F1E70168D6
:104C5000CA6822F02002CA600168CA6822F4807221
:104C6000CA6001684A6922F001024A61202180F885
:104C7000421000214163026B012A03D0FEF752FB70
:104C8000002008BD016301680C3151E8002F22F0BB
:104C9000100241E80023002BF5D101680A68D20612
:104CA00002D50A6849680091818DFEF74BF8E7E765
:104CB00070B5044600680169E26821F4405111436F
:104CC00001612169A0680843616908432168CA68D5
:104CD00041F20C639A430243CA6020684169A269A9
:104CE00021F44071114341611E492068884202D17C
:104CF000FCF7D6FF01E0FCF7C3FF00EBC00101EBBE
:104D00000012606864218000B2FBF0F3B3FBF1F3A2
:104D10006FF018067343B2FBF0F5B2FBF0F605EB4B
:104D20008305322303EB0515B5FBF1F5B6FBF1F670
:104D300005F0F00505EB0615B2FBF0F6B2FBF0F05E
:104D4000B0FBF1F06FF01802504306EB800003EB6C
:104D50000010B0FBF1F0216800F00F0028448860DB
:104D600070BD00000038014038B58162044682857C
:104D7000002013466064222284F84220E56B1B4A1F
:104D8000AA62E56B1A4AEA62E56B1A4A2A63E26B89
:104D900050630A462168E06B091DFCF727FA20687A
:104DA000016840680090206948B120680C3050E8E4
:104DB000001F41F4807140E80012002AF5D12068FC
:104DC000143050E8001F41F0010140E80012002AB1
:104DD000F5D12068143050E8001F41F0400140E850
:104DE0000012002AF5D1002038BD0000E14A000879
:104DF000674B0008974A000881628285C2850021BE
:104E00004164222180F84210016921B10168CA6819
:104E100042F48072CA6001684A6942F001024A6144
:104E20000068C16841F02001C160002070472DE991
:104E3000F843984617460D460446089E24E0701C29
:104E400022D0FCF71FFBA0EB0800B0421AD8CEB16D
:104E50002068C168490717D5802D15D0402D13D083
:104E60000168C94309070FD4016800254068009014
:104E70002046FFF787FE0820606484F84050012038
:104E8000BDE8F8830320FBE72068006835EA0000EE
:104E900004D00020B842D2D00020F1E70120F9E789
:104EA0000148FEF73DB80000540500200148FEF718
:104EB00037B800009C050020FEE700002DE9F04116
:104EC0000121274B002215461A7083F8C1200A469B
:104ED00005EB45063418875D94F801C0A6780024D8
:104EE000C4F1070E02FA0EFE1EEA0C0F02D04FF0BC
:104EF000F80E01E04FF0C00E03F801E0491C641CFD
:104F0000082CEDDB5FF00004C4F1070E02FA0EFE80
:104F100094461EEA070F02D04FF0F80E01E04FF062
:104F2000C00E03F801E0491C641C082CECDB0024D3
:104F3000C4F1070E0CFA0EF7374201D0F82700E053
:104F4000C0275F54491C641C082CF1DB6D1C082D24
:104F5000BEDBBDE8F041C22201490248FDF70AB9B3
:104F600040060020080300200FB4054B10B503A92C
:104F7000044A029800F042FA10BC5DF814FB0000ED
:104F80006D6D000844000020490050EAC12018BFA0
:104F900004204A0D18BF40F0010040F2FF72B2EB4E
:104FA000515F08BF40F00200012808BF052070478C
:104FB0004100080218BF04200A0E18BF40F001008B
:104FC0004FF07F4232EA010108BF40F002000128A1
:104FD00008BF052070470907090E002804DB00F10F
:104FE000E02080F80014704700F00F0000F1E0208E
:104FF00080F8141D70472DE9F0414F1E00EBC701EA
:105000000446D1E9000115461E4637F006020DD0D0
:105010002A463346FBF76DFA7F1E04EBC703D3E93C
:105020000023FBF7BFF937F00602F1D1022F25D09C
:10503000042F13D0062F18BFBDE8F0812A4633464F
:10504000FBF757FAD4E90A23FBF7ACF92A463346B3
:10505000FBF74FFAD4E90823FBF7A4F92A463346B5
:10506000FBF747FAD4E90623FBF79CF92A463346B7
:10507000FBF73FFAD4E90423FBF794F92A463346B9
:10508000FBF737FAD4E90223FBF78CF92A463346BB
:10509000FBF72FFAD4E90023BDE8F041FBF782B912
:1050A0000122FBF7E3BCFBF77DB900221346104653
:1050B0001146FBF790BA0000024A00201107FBF7E7
:1050C000D5BC000001FDFFFF0121FBF75FB9FBF735
:1050D00095B800210846FBF71BB96FF05E01080781
:1050E000FBF754B92DE9F04D0D4614464FF07F41C2
:1050F000B1EB440F9EBF4FF0FF312960BDE8F08D4A
:105100004FF0004040EA0421C4F3C750783810F053
:105110001F024A4B4FEA601CC2F120067B44C4F3D5
:10512000C750A0F178004FEA601003EB800053F8FD
:105130002C3008BFD0E901C612D0D0F804C093408B
:105140002CFA06F73B4387680CFA02FC27FA06F8AC
:10515000C06807FA02F2F0404CEA080C42EA000686
:10516000A3FB0132ACFB01C0A6FB016101EB0C0605
:105170008E4234BF4FF0010C4FF0000CC118614457
:10518000BCF1000F02D0814202D903E0814201D27A
:10519000012000E00020104400F120024FEA9218A4
:1051A0008006CA0C40EA42304F03C5F80080FBF786
:1051B00081FA82463846FBF786FA6FF01201FBF758
:1051C000E5F807463046FBF77EFA6FF02501FBF75E
:1051D000DDF8834639465046FBF710F85946FBF791
:1051E0000DF800F500666FF30B0651463046FBF7ED
:1051F00057F83946FBF754F85946FBF754F810496D
:10520000FBF754F807460F493046FBF74FF839468D
:10521000FAF7F4FF07460C493046FBF747F83946E2
:10522000FAF7ECFF14F0004F08BFBDE8F08DC8F1AD
:10523000805180F000402960BDE8F08D803C000086
:10524000DB0FC92F22AAFD290000C92F02E008C8E0
:10525000121F08C1002AFAD170477047002001E0F0
:1052600001C1121F002AFBD17047000001490860EC
:1052700070470000700100202DE9FF5F82B000211F
:10528000DDE90430020DDDF840B0034318D044F6E8
:105290001050A2F2FF3242431514119801281FD07A
:1052A000A5EB0B00401C5FEA000A4FF000064E4FD2
:1052B000DFF83891B046504615D5CAF1000413E026
:1052C000119801244AA3012801D16FEA0B01029829
:1052D000119AC0E90031C0E9024206B0BDE8F09F72
:1052E000CBF10000DFE704460021404A491842EBB9
:1052F0000450CDE9001012E0E00707D032463B46EB
:1053000040464946FBF7F5F88046894632463B461B
:1053100010461946FBF7EDF806460F466410002CC0
:10532000EAD1DDE90401DDE90023BAF1000F06DA74
:10533000FBF7DFF842464B46FBF7DBF805E0FBF7EF
:105340004AF942464B46FBF746F904460E46002210
:10535000284BFBF7D3FB03D84FF0FF30014607E0A3
:105360000022254B20463146FBF71CF8FBF795FB46
:10537000102409E0002C0ADB0A220023FBF71AFAAA
:10538000039B30321A55641E50EA0102F2D1641CAC
:10539000039AC4F111031444119A012A03D0012283
:1053A00008430DD10AE0084304D000204FF0110B50
:1053B000119072E7A3EB0B056D1E0DE05B4504DD5C
:1053C0004FF0000205F1010504E003DA4FF000029E
:1053D000A5F10105002AECD002981199C0E902312B
:1053E000C0E9004579E70000000014400000F03FEC
:1053F000300000000000F0430000E03F2DE9FF4FC7
:1054000095B09A46884606460025EEE1252877D1D4
:1054100000242746F94A0121039400E0044316F8CA
:10542000013F203B01FA03F01042F7D130782A28DF
:1054300011D06FF02F033078A0F13002092A16D86E
:10544000039A44F0020402EB820203EB420210448E
:10545000761C0390EFE758F8042B0392002A03DA36
:10546000504244F40054039044F00204761C307817
:105470002E2816D116F8010F44F004042A280DD066
:105480006FF02F023078A0F13003092B09D807EB19
:10549000870302EB4303C718761CF3E758F8047B35
:1054A000761C30786C280FD006DC4C2817D0682882
:1054B0000DD06A2814D104E0742810D07A280FD1B6
:1054C0000DE044F400140AE044F4801401E044F4D4
:1054D00040147278824202D104F58014761C761C46
:1054E000307866280BD013DC582877D009DC0028E8
:1054F00075D04528F6D04628F4D047281AD193E134
:1055000018E0632835D0642879D0652812D18BE162
:10551000702873D008DC6728F1D069286FD06E2816
:105520000DD06F2806D1ACE073282CD0752874D02C
:10553000782853D05246179990476D1C54E1C4F314
:105540000250022809D003280DD0D8F800100428F2
:105550000DD00D6008F1040846E1D8F80010EA17F4
:10556000C1E90052F6E7D8F800100D80F2E70D709F
:10557000F0E718F8041B8DF8001000208DF80100EA
:10558000EB46012003E058F804BB4FF0FF30610701
:105590004FF0000102D40DE009F101018946B94242
:1055A0000FDA8145F8DB1BF809100029F4D108E077
:1055B00009F1010189468142FADB1BF80910002933
:1055C000F6D103985346A0EB090721463846179AAF
:1055D00000F080FA284400EB090507E044E008E108
:1055E0000DE01BF8010B524617999047B9F10109DC
:1055F000F7D2534621463846179AF2E039E00A219D
:10560000C4F302524FF0000B0091022A06D058F862
:10561000040BC117032A09D00AE023E008F10700B0
:1056200020F00702F2E80201904605E000B2C1173F
:10563000042A01D140B2C117002906DA0A46002126
:10564000404261EB02012D2202E0220504D52B220B
:105650008DF80420012203E0E20701D02022F7E7C1
:10566000914657E00A2100E010214FF0000B009115
:105670000BE010214FF0000B44F0040408270091C8
:1056800003E008204FF0000B0090C4F30252022AFE
:1056900005D058F8040B0021032A08D008E008F1CF
:1056A000070020F00702F2E80201904603E080B212
:1056B000042A00D1C0B24FF0000922072AD532785F
:1056C000702A07D0DDF800C08CF0100C5CEA0B0CDF
:1056D00005D00EE040228DF80420012208E050EAB7
:1056E000010306D030238DF804308DF80520022206
:1056F0009146009B83F0080353EA0B030AD150EA5A
:10570000010201D1620705D530228DF804204FF047
:1057100001097F1E3278582A04D039A20C920CAAB3
:1057200002920BE03BA2F9E75B46009AFBF742F8D6
:105730000C9B9B5C029A521E0292137050EA01026B
:10574000F2D1029804A9081A00F1200B600702D5D3
:1057500024F4803400E001275F4502DDA7EB0B0055
:1057600000E0002000EB0B01009003984944401A30
:105770000390E00306D453462146179A039800F09D
:10578000A9F90544002706E001A85246C05D179913
:1057900090476D1C7F1C4F45F6DBE0030CD553464C
:1057A0002146179A039800F095F9054404E030204B
:1057B0005246179990476D1C0099481E0090002989
:1057C000F5DC08E00298029952460078491C0291E3
:1057D000179990476D1CBBF10001ABF1010BF1DC97
:1057E0005BE100F065F90544761C307800287FF411
:1057F0000DAE19B02846BDE8F08F00000928010061
:105800003031323334353637383961626364656636
:1058100000000000303132333435363738394142F8
:105820004344454600000000600700D4062708F105
:10583000070020F00700F0E80223804603F0004C48
:105840005FEA0C0001D097A009E0200501D596A0E1
:1058500005E0E00701D095A001E0AFF24C00139005
:10586000307823F0004365280CD006DC452809D0A9
:1058700046281DD047287FD13BE0662818D06728EE
:105880007AD136E00021112F01DB112000E0781CD5
:10589000CDE9000104A90CA8FFF7EEFCDDE90D013C
:1058A0000C9A4FF0000B07F10109109200914EE0A5
:1058B0004FF000400097CDE9011004A90CA8FFF7B4
:1058C000DBFCDDE90D020C9B0F994FF0000B9146BC
:1058D0001093009211B9791C00EB0109B7EB090094
:1058E00003D4C0F1FF3B07F10109A9EB07000190C8
:1058F00042E0012F00DA01270021112F01DD1120E4
:1059000000E03846CDE9000104A90CA8FFF7B4FC7B
:10591000DDE90D010C9A00914FF0000BB946109291
:1059200021070FD4009A4A4503DA914601E0A9F114
:105930000109B9F1010F05DD109AA9F10101515CCE
:105940003029F4D0B84202DA10F1040F03DA012151
:10595000CDE9011010E0002803DC8344A9EB00012D
:1059600002E0411C494500DD8946A0EB0B00401CCC
:1059700001904FF000400290200705D4019848455F
:1059800002DB4FF0FF30019000208DF84B000298B1
:105990000DF14B07B0F1004F25D002200C902B20C9
:1059A0000D90029800280CDA404202902D200D90B4
:1059B00007E00A210298FAF7E7FE3031029007F873
:1059C000011D0C99481E0C900029F2DC0298002859
:1059D000EFD1791E0D980870307800F0200040F06B
:1059E000450007F8020D11A8C01BC01D02901398B6
:1059F000007800B1012000EB0901019801EBE07192
:105A0000029801440398401A401E0390E00306D414
:105A100053462146179A039800F05CF80544139802
:105A2000007818B15246179990476D1CE00323D5B2
:105A300053462146179A039800F04CF805441BE0A2
:105A4000BBF1000F07DB0098584504DD109817994B
:105A500010F80B0001E0179930205246904701984A
:105A60000BF1010B401E05F10105019004D12E2020
:105A70005246179990476D1CB9F10001A9F101092F
:105A8000DEDC05E017F8010B5246179990476D1CB4
:105A90000299481E02900029F4DC53462146179AC9
:105AA00003989EE62D0000002B000000200000005F
:105AB0002DE9F041044600251E461746880404D40B
:105AC00005E039462020B0476D1C641EF9D52846F4
:105AD000BDE8F0812DE9F041044600251E469046C0
